:020000040000FA
:040000004BEF3FF093
:107E8000016E01C0ADFF1200010EC26E0E0EC16E7A
:107E9000240EC06E12000E6A0D6A0C6A0B6A000195
:107EA0005FEF3FF0948E949C1F0EAF6EAB8EAC983C
:107EB000B896AC94AC9CAC8AAB9CAB881200959005
:107EC0008C80270E0A6E0D0E096E260EE82EFED748
:107ED000092EFCD70A2EFAD700D08C9052EC3FF036
:107EE00044EC3FF0000EC46EC282C2A27AEF3FF0B3
:107EF0007CEF3FF07EEF3FF075EF3FF0C450640D34
:107F0000F3CF01F0F4CF02F0000E046E03689EEC94
:107F10003FF00150050DF35040EC3FF01A0E0A6E91
:107F20005E0E096E6E0EE82EFED7092EFCD70A2EC5
:107F3000FAD700D072EF3FF000EF00F0000E066EAF
:107F400004BEA7EF3FF0A5EF3FF0ADEF3FF0036CAD
:107F5000041ED8B0042A010E066E02BEB4EF3FF034
:107F6000B2EF3FF0BAEF3FF0016C021ED8B0022A28
:107F7000010E061A000E086E000E076E0350041064
:107F8000D8B4C5EF3FF0C7EF3FF0EFEF3FF0010E81
:107F9000056ECFEF3FF0D89003360436052A04AEC5
:107FA000D4EF3FF0D6EF3FF0CBEF3FF0D89007365D
:107FB00008360350015C04500258D8A0E2EF3FF0AD
:107FC000E4EF3FF0E9EF3FF00350015E0450025A46
:107FD0000780D89004320332052ED6EF3FF00650CA
:107FE000D8B4F5EF3FF0F7EF3FF0FBEF3FF0076C51
:107FF000081ED8B0082A07C001F008C002F012001D
:020000040020DA
:08000000FFFFFFFFFFFFFFFF00
:020000040030CA
:0E000000000C191EFF8080FF0FC00FE00F40A4
:00000001FF
